{
  "address": "0xa6486477Be657B44af51a0cEa0F5cFDE840C8636",
  "abi": [
    {
      "inputs": [
        {
          "internalType": "address",
          "name": "recipientAddress",
          "type": "address"
        }
      ],
      "stateMutability": "nonpayable",
      "type": "constructor"
    },
    {
      "stateMutability": "payable",
      "type": "fallback"
    },
    {
      "inputs": [],
      "name": "doTransfer",
      "outputs": [],
      "stateMutability": "nonpayable",
      "type": "function"
    },
    {
      "inputs": [],
      "name": "i_recipientAddress",
      "outputs": [
        {
          "internalType": "address",
          "name": "",
          "type": "address"
        }
      ],
      "stateMutability": "view",
      "type": "function"
    },
    {
      "inputs": [],
      "name": "recieveFunds",
      "outputs": [],
      "stateMutability": "payable",
      "type": "function"
    },
    {
      "stateMutability": "payable",
      "type": "receive"
    }
  ],
  "transactionHash": "0x558d2949caf52df2ddc3d8bc21dcc65d1b3329b4163a9f48b8142bbc1aebc6cb",
  "args": [
    "0x778ae1bdb9CA3a0344a6A00680066434DdFac7a1"
  ],
  "numDeployments": 7,
  "solcInputHash": "f8da53059161d1c8cc0d267a53164f9d",
  "bytecode": "0x60a060405234801561001057600080fd5b5060405161040a38038061040a83398181016040528101906100329190610084565b8073ffffffffffffffffffffffffffffffffffffffff1660808173ffffffffffffffffffffffffffffffffffffffff1660601b81525050506100ff565b60008151905061007e816100e8565b92915050565b60006020828403121561009a576100996100e3565b5b60006100a88482850161006f565b91505092915050565b60006100bc826100c3565b9050919050565b600073ffffffffffffffffffffffffffffffffffffffff82169050919050565b600080fd5b6100f1816100b1565b81146100fc57600080fd5b50565b60805160601c6102e76101236000396000818160a3015261017001526102e76000f3fe6080604052600436106100385760003560e01c806333182e8f14610051578063baba481114610068578063e726c23b1461007257610047565b366100475761004561009d565b005b61004f61009d565b005b34801561005d57600080fd5b5061006661009f565b005b61007061009d565b005b34801561007e57600080fd5b5061008761016e565b60405161009491906101fc565b60405180910390f35b565b60007f000000000000000000000000000000000000000000000000000000000000000073ffffffffffffffffffffffffffffffffffffffff16476040516100e5906101e7565b60006040518083038185875af1925050503d8060008114610122576040519150601f19603f3d011682016040523d82523d6000602084013e610127565b606091505b505090508061016b576040517f08c379a000000000000000000000000000000000000000000000000000000000815260040161016290610217565b60405180910390fd5b50565b7f000000000000000000000000000000000000000000000000000000000000000081565b61019b81610253565b82525050565b60006101ae600b83610242565b91506101b982610285565b602082019050919050565b60006101d1600083610237565b91506101dc826102ae565b600082019050919050565b60006101f2826101c4565b9150819050919050565b60006020820190506102116000830184610192565b92915050565b60006020820190508181036000830152610230816101a1565b9050919050565b600081905092915050565b600082825260208201905092915050565b600061025e82610265565b9050919050565b600073ffffffffffffffffffffffffffffffffffffffff82169050919050565b7f43616c6c206661696c6564000000000000000000000000000000000000000000600082015250565b5056fea2646970667358221220f64bfe88379ee957ef622c1440a2b9328a3382ddf00d9b1d5e9b000029ea2c4c64736f6c63430008070033",
  "devdoc": {
    "kind": "dev",
    "methods": {},
    "version": 1
  },
  "userdoc": {
    "kind": "user",
    "methods": {},
    "version": 1
  },
  "storageLayout": {
    "storage": [],
    "types": null
  }
}